{
  "contractName": "RogoCoinSale",
  "abi": [
    {
      "inputs": [
        {
          "internalType": "contract RogoCoin",
          "name": "_tokenContract",
          "type": "address"
        },
        {
          "internalType": "uint256",
          "name": "_tokenPrice",
          "type": "uint256"
        }
      ],
      "payable": false,
      "stateMutability": "nonpayable",
      "type": "constructor"
    },
    {
      "constant": true,
      "inputs": [],
      "name": "tokenContract",
      "outputs": [
        {
          "internalType": "contract RogoCoin",
          "name": "",
          "type": "address"
        }
      ],
      "payable": false,
      "stateMutability": "view",
      "type": "function"
    },
    {
      "constant": true,
      "inputs": [],
      "name": "tokenPrice",
      "outputs": [
        {
          "internalType": "uint256",
          "name": "",
          "type": "uint256"
        }
      ],
      "payable": false,
      "stateMutability": "view",
      "type": "function"
    }
  ],
  "bytecode": "0x608060405234801561001057600080fd5b506040516101373803806101378339818101604052604081101561003357600080fd5b508051602090910151600080546001600160a01b03199081163317909155600180546001600160a01b03909416939091169290921790915560025560bb8061007c6000396000f3fe6080604052348015600f57600080fd5b506004361060325760003560e01c806355a373d61460375780637ff9b596146059575b600080fd5b603d6071565b604080516001600160a01b039092168252519081900360200190f35b605f6080565b60408051918252519081900360200190f35b6001546001600160a01b031681565b6002548156fea265627a7a723158203f99516114b711bcc8ff18180af0b5b7cc7fee23bcc06738090c7559ef47961164736f6c63430005100032",
  "source": "pragma solidity ^0.5.16;\nimport \"./RogoCoin.sol\";\n\ncontract RogoCoinSale {\n  address admin;\n  RogoCoin public tokenContract;\n  uint256 public tokenPrice;\n\n  constructor(RogoCoin _tokenContract, uint256 _tokenPrice) public {\n    admin = msg.sender;\n    tokenContract = _tokenContract;\n    tokenPrice = _tokenPrice;\n  }\n}\n",
  "sourcePath": "/home/robogod/Code/blockchain/rogocoin/contracts/RogoCoinSale.sol",
  "compiler": {
    "name": "solc",
    "version": "0.5.16+commit.9c3226ce.Emscripten.clang"
  },
  "schemaVersion": "3.4.4",
  "updatedAt": "2022-02-03T14:13:06.696Z",
  "devdoc": {
    "methods": {}
  },
  "userdoc": {
    "methods": {}
  }
}