{
  "contractName": "RogoCoin",
  "abi": [
    {
      "inputs": [],
      "payable": false,
      "stateMutability": "nonpayable",
      "type": "constructor"
    },
    {
      "anonymous": false,
      "inputs": [
        {
          "indexed": false,
          "internalType": "uint256",
          "name": "totalSupply",
          "type": "uint256"
        }
      ],
      "name": "TotalSupplyUpdated",
      "type": "event"
    },
    {
      "constant": true,
      "inputs": [],
      "name": "totalSupply",
      "outputs": [
        {
          "internalType": "uint256",
          "name": "",
          "type": "uint256"
        }
      ],
      "payable": false,
      "stateMutability": "view",
      "type": "function"
    },
    {
      "constant": false,
      "inputs": [
        {
          "internalType": "uint256",
          "name": "_totalSupply",
          "type": "uint256"
        }
      ],
      "name": "setTotalSupply",
      "outputs": [],
      "payable": false,
      "stateMutability": "nonpayable",
      "type": "function"
    }
  ],
  "bytecode": "0x608060405234801561001057600080fd5b50620f424060005560e1806100266000396000f3fe6080604052348015600f57600080fd5b506004361060325760003560e01c806318160ddd146037578063f7ea7a3d14604f575b600080fd5b603d606b565b60408051918252519081900360200190f35b606960048036036020811015606357600080fd5b50356071565b005b60005481565b60008190556040805182815290517ff8cbdbee6d402ad22cddbc250098e39cd0d24f0fad122f64794577167c605df99181900360200190a15056fea265627a7a723158209f1e20c40aa6299b0176fe21200714fb53847e35635c04fdcbd7d178465775a564736f6c63430005100032",
  "source": "pragma solidity ^0.5.16;\n\ncontract RogoCoin {\n  // Constructor\n  // Set the total number of tokens\n  // Read the total number of tokens \n  uint256 public totalSupply;\n\n  event TotalSupplyUpdated(\n    uint256 totalSupply\n  );\n\n  constructor() public {\n    totalSupply = 1000000;\n  }\n\n  function setTotalSupply(uint256 _totalSupply) public {\n    totalSupply = _totalSupply;\n    emit TotalSupplyUpdated(totalSupply);\n  }\n}\n",
  "sourcePath": "/home/robogod/Code/blockchain/rogocoin/contracts/RogoCoin.sol",
  "compiler": {
    "name": "solc",
    "version": "0.5.16+commit.9c3226ce.Emscripten.clang"
  },
  "schemaVersion": "3.4.4",
  "updatedAt": "2022-02-02T11:42:00.707Z",
  "devdoc": {
    "methods": {}
  },
  "userdoc": {
    "methods": {}
  }
}