{
  "contractName": "RogoCoin",
  "abi": [
    {
      "inputs": [
        {
          "internalType": "uint256",
          "name": "_initialSupply",
          "type": "uint256"
        }
      ],
      "payable": false,
      "stateMutability": "nonpayable",
      "type": "constructor"
    },
    {
      "anonymous": false,
      "inputs": [
        {
          "indexed": true,
          "internalType": "address",
          "name": "_owner",
          "type": "address"
        },
        {
          "indexed": true,
          "internalType": "address",
          "name": "_spender",
          "type": "address"
        },
        {
          "indexed": false,
          "internalType": "uint256",
          "name": "_value",
          "type": "uint256"
        }
      ],
      "name": "Approval",
      "type": "event"
    },
    {
      "anonymous": false,
      "inputs": [
        {
          "indexed": true,
          "internalType": "address",
          "name": "_from",
          "type": "address"
        },
        {
          "indexed": true,
          "internalType": "address",
          "name": "_to",
          "type": "address"
        },
        {
          "indexed": false,
          "internalType": "uint256",
          "name": "_value",
          "type": "uint256"
        }
      ],
      "name": "Transfer",
      "type": "event"
    },
    {
      "constant": true,
      "inputs": [
        {
          "internalType": "address",
          "name": "",
          "type": "address"
        },
        {
          "internalType": "address",
          "name": "",
          "type": "address"
        }
      ],
      "name": "allowance",
      "outputs": [
        {
          "internalType": "uint256",
          "name": "",
          "type": "uint256"
        }
      ],
      "payable": false,
      "stateMutability": "view",
      "type": "function"
    },
    {
      "constant": true,
      "inputs": [
        {
          "internalType": "address",
          "name": "",
          "type": "address"
        }
      ],
      "name": "balanceOf",
      "outputs": [
        {
          "internalType": "uint256",
          "name": "",
          "type": "uint256"
        }
      ],
      "payable": false,
      "stateMutability": "view",
      "type": "function"
    },
    {
      "constant": true,
      "inputs": [],
      "name": "decimals",
      "outputs": [
        {
          "internalType": "uint8",
          "name": "",
          "type": "uint8"
        }
      ],
      "payable": false,
      "stateMutability": "view",
      "type": "function"
    },
    {
      "constant": true,
      "inputs": [],
      "name": "name",
      "outputs": [
        {
          "internalType": "string",
          "name": "",
          "type": "string"
        }
      ],
      "payable": false,
      "stateMutability": "view",
      "type": "function"
    },
    {
      "constant": true,
      "inputs": [],
      "name": "standard",
      "outputs": [
        {
          "internalType": "string",
          "name": "",
          "type": "string"
        }
      ],
      "payable": false,
      "stateMutability": "view",
      "type": "function"
    },
    {
      "constant": true,
      "inputs": [],
      "name": "symbol",
      "outputs": [
        {
          "internalType": "string",
          "name": "",
          "type": "string"
        }
      ],
      "payable": false,
      "stateMutability": "view",
      "type": "function"
    },
    {
      "constant": true,
      "inputs": [],
      "name": "totalSupply",
      "outputs": [
        {
          "internalType": "uint256",
          "name": "",
          "type": "uint256"
        }
      ],
      "payable": false,
      "stateMutability": "view",
      "type": "function"
    },
    {
      "constant": false,
      "inputs": [
        {
          "internalType": "address",
          "name": "_to",
          "type": "address"
        },
        {
          "internalType": "uint256",
          "name": "_value",
          "type": "uint256"
        }
      ],
      "name": "transfer",
      "outputs": [
        {
          "internalType": "bool",
          "name": "success",
          "type": "bool"
        }
      ],
      "payable": false,
      "stateMutability": "nonpayable",
      "type": "function"
    },
    {
      "constant": false,
      "inputs": [
        {
          "internalType": "address",
          "name": "_spender",
          "type": "address"
        },
        {
          "internalType": "uint256",
          "name": "_value",
          "type": "uint256"
        }
      ],
      "name": "approve",
      "outputs": [
        {
          "internalType": "bool",
          "name": "success",
          "type": "bool"
        }
      ],
      "payable": false,
      "stateMutability": "nonpayable",
      "type": "function"
    },
    {
      "constant": false,
      "inputs": [
        {
          "internalType": "address",
          "name": "_from",
          "type": "address"
        },
        {
          "internalType": "address",
          "name": "_to",
          "type": "address"
        },
        {
          "internalType": "uint256",
          "name": "_value",
          "type": "uint256"
        }
      ],
      "name": "transferFrom",
      "outputs": [
        {
          "internalType": "bool",
          "name": "success",
          "type": "bool"
        }
      ],
      "payable": false,
      "stateMutability": "nonpayable",
      "type": "function"
    }
  ],
  "bytecode": "0x60c060405260086080819052672937b3b7a1b7b4b760c11b60a090815261002991600191906100e0565b5060408051808201909152600480825263524f474f60e01b6020909201918252610055916002916100e0565b5060408051808201909152600d8082526c0526f676f436f696e2076312e3609c1b602090920191825261008a916003916100e0565b506004805460ff191660081790553480156100a457600080fd5b50604051610884380380610884833981810160405260208110156100c757600080fd5b505160008181553381526005602052604090205561017b565b828054600181600116156101000203166002900490600052602060002090601f016020900481019282601f1061012157805160ff191683800117855561014e565b8280016001018555821561014e579182015b8281111561014e578251825591602001919060010190610133565b5061015a92915061015e565b5090565b61017891905b8082111561015a5760008155600101610164565b90565b6106fa8061018a6000396000f3fe608060405234801561001057600080fd5b506004361061009e5760003560e01c80635a3b7e42116100665780635a3b7e42146101ce57806370a08231146101d657806395d89b41146101fc578063a9059cbb14610204578063dd62ed3e146102305761009e565b806306fdde03146100a3578063095ea7b31461012057806318160ddd1461016057806323b872dd1461017a578063313ce567146101b0575b600080fd5b6100ab61025e565b6040805160208082528351818301528351919283929083019185019080838360005b838110156100e55781810151838201526020016100cd565b50505050905090810190601f1680156101125780820380516001836020036101000a031916815260200191505b509250505060405180910390f35b61014c6004803603604081101561013657600080fd5b506001600160a01b0381351690602001356102eb565b604080519115158252519081900360200190f35b610168610356565b60408051918252519081900360200190f35b61014c6004803603606081101561019057600080fd5b506001600160a01b0381358116916020810135909116906040013561035c565b6101b86104b4565b6040805160ff9092168252519081900360200190f35b6100ab6104bd565b610168600480360360208110156101ec57600080fd5b50356001600160a01b0316610518565b6100ab61052a565b61014c6004803603604081101561021a57600080fd5b506001600160a01b038135169060200135610582565b6101686004803603604081101561024657600080fd5b506001600160a01b0381358116916020013516610642565b60018054604080516020600284861615610100026000190190941693909304601f810184900484028201840190925281815292918301828280156102e35780601f106102b8576101008083540402835291602001916102e3565b820191906000526020600020905b8154815290600101906020018083116102c657829003601f168201915b505050505081565b3360008181526006602090815260408083206001600160a01b03871680855290835281842086905581518681529151939493909284927f8c5be1e5ebec7d5bd14f71427d1e84f3dd0314c0f7b2291e5b200ac8c7c3b925929081900390910190a35060019392505050565b60005481565b6001600160a01b038316600090815260056020526040812054849083908111156103b75760405162461bcd60e51b81526004018080602001828103825260328152602001806106946032913960400191505060405180910390fd5b6001600160a01b038616600090815260066020908152604080832033808552925290912054879190869081111561041f5760405162461bcd60e51b81526004018080602001828103825260348152602001806106606034913960400191505060405180910390fd5b6001600160a01b03808a16600081815260056020908152604080832080548d90039055938c1680835284832080548d01905583835260068252848320338085529083529285902080548d9003905584518c8152945192949093927fddf252ad1be2c89b69c2b068fc378daa952ba7f163c4a11628f55a4df523b3ef929181900390910190a35060019998505050505050505050565b60045460ff1681565b6003805460408051602060026001851615610100026000190190941693909304601f810184900484028201840190925281815292918301828280156102e35780601f106102b8576101008083540402835291602001916102e3565b60056020526000908152604090205481565b6002805460408051602060018416156101000260001901909316849004601f810184900484028201840190925281815292918301828280156102e35780601f106102b8576101008083540402835291602001916102e3565b3360008181526005602052604081205490919083908111156105d55760405162461bcd60e51b81526004018080602001828103825260328152602001806106946032913960400191505060405180910390fd5b336000818152600560209081526040808320805489900390556001600160a01b038916808452928190208054890190558051888152905184927fddf252ad1be2c89b69c2b068fc378daa952ba7f163c4a11628f55a4df523b3ef928290030190a350600195945050505050565b60066020908152600092835260408084209091529082529020548156fe416c6c6f77616e63652073686f756c642062652067726561746572207468616e207472616e73616374696f6e20616d6f756e742e42616c616e63652073686f756c642062652067726561746572207468616e207472616e73616374696f6e20616d6f756e742ea265627a7a7231582063fd863e27dd996eb1bd2b9a7ef173804379104d9eb9ab8d5c54076582865e7764736f6c63430005100032",
  "source": "pragma solidity ^0.5.16;\n\n/**\n * ERC-20: https://eips.ethereum.org/EIPS/eip-20\n */\ncontract RogoCoin {\n  uint256 public totalSupply;\n  string public name = \"RogoCoin\";\n  string public symbol = \"ROGO\";\n  string public standard = \"RogoCoin v1.0\";\n  uint8 public decimals = 8;\n\n  mapping(address => uint256) public balanceOf;\n\n  mapping(address => mapping (address => uint256)) public allowance;\n\n  event Transfer(address indexed _from, address indexed _to, uint256 _value);\n  \n  event Approval(address indexed _owner, address indexed _spender, uint256 _value);\n\n  constructor(uint256 _initialSupply) public {\n    totalSupply = _initialSupply;\n    balanceOf[msg.sender] = _initialSupply;\n  }\n\n  modifier hasBalance(address sender, uint256 value) {\n    require(balanceOf[sender] >= value, \"Balance should be greater than transaction amount.\");\n    _;\n  }\n\n  modifier minimumAllowance(address owner, address spender, uint256 value) {\n    require(allowance[owner][spender] >= value, \"Allowance should be greater than transaction amount.\");\n    _;\n  }\n\n  function transfer(address _to, uint256 _value) public hasBalance(msg.sender, _value) returns (bool success) {\n    address _from = msg.sender;\n    balanceOf[_from] -= _value;\n    balanceOf[_to] += _value;\n\n    emit Transfer(_from, _to, _value);\n    return true;\n  }\n\n  function approve(address _spender, uint256 _value) public returns (bool success) {\n    address _owner = msg.sender;\n\n    allowance[_owner][_spender] = _value;\n\n    emit Approval(_owner, _spender, _value);\n    return true;\n  }\n\n  function transferFrom(address _from, address _to, uint256 _value) public \n    hasBalance(_from, _value) \n    minimumAllowance(_from, msg.sender, _value) \n    returns (bool success) {\n    address _spender = msg.sender;\n\n    // Perform the transer\n    balanceOf[_from] -= _value;\n    balanceOf[_to] += _value;\n\n    // Deduct the allowance\n    allowance[_from][_spender] -= _value;\n    emit Transfer(_from, _to, _value);\n    return true;\n  }\n}\n",
  "sourcePath": "/home/robogod/Code/blockchain/rogocoin/contracts/RogoCoin.sol",
  "compiler": {
    "name": "solc",
    "version": "0.5.16+commit.9c3226ce.Emscripten.clang"
  },
  "schemaVersion": "3.4.4",
  "updatedAt": "2022-02-03T05:06:23.714Z",
  "networkType": "ethereum",
  "devdoc": {
    "methods": {}
  },
  "userdoc": {
    "methods": {},
    "notice": "ERC-20: https://eips.ethereum.org/EIPS/eip-20"
  }
}